{
  "abi": [
    {
      "anonymous": false,
      "inputs": [
        {
          "indexed": true,
          "internalType": "uint256",
          "name": "id",
          "type": "uint256"
        },
        {
          "indexed": true,
          "internalType": "address",
          "name": "creator",
          "type": "address"
        },
        {
          "indexed": false,
          "internalType": "string",
          "name": "coinPair",
          "type": "string"
        },
        {
          "indexed": false,
          "internalType": "uint256",
          "name": "timestamp",
          "type": "uint256"
        }
      ],
      "name": "StrategySaved",
      "type": "event"
    },
    {
      "inputs": [
        {
          "internalType": "uint256",
          "name": "_id",
          "type": "uint256"
        }
      ],
      "name": "getStrategy",
      "outputs": [
        {
          "components": [
            {
              "internalType": "string",
              "name": "coinPair",
              "type": "string"
            },
            {
              "internalType": "uint256",
              "name": "entryPrice",
              "type": "uint256"
            },
            {
              "internalType": "uint256",
              "name": "stopLoss",
              "type": "uint256"
            },
            {
              "internalType": "uint256",
              "name": "takeProfit",
              "type": "uint256"
            },
            {
              "internalType": "uint8",
              "name": "aegisScore",
              "type": "uint8"
            },
            {
              "internalType": "bool",
              "name": "isLong",
              "type": "bool"
            },
            {
              "internalType": "address",
              "name": "creator",
              "type": "address"
            },
            {
              "internalType": "uint256",
              "name": "timestamp",
              "type": "uint256"
            }
          ],
          "internalType": "struct AegisStrategyRegistry.Strategy",
          "name": "",
          "type": "tuple"
        }
      ],
      "stateMutability": "view",
      "type": "function"
    },
    {
      "inputs": [],
      "name": "getTotalStrategies",
      "outputs": [
        {
          "internalType": "uint256",
          "name": "",
          "type": "uint256"
        }
      ],
      "stateMutability": "view",
      "type": "function"
    },
    {
      "inputs": [
        {
          "internalType": "string",
          "name": "_coinPair",
          "type": "string"
        },
        {
          "internalType": "uint256",
          "name": "_entryPrice",
          "type": "uint256"
        },
        {
          "internalType": "uint256",
          "name": "_stopLoss",
          "type": "uint256"
        },
        {
          "internalType": "uint256",
          "name": "_takeProfit",
          "type": "uint256"
        },
        {
          "internalType": "uint8",
          "name": "_aegisScore",
          "type": "uint8"
        },
        {
          "internalType": "bool",
          "name": "_isLong",
          "type": "bool"
        }
      ],
      "name": "savePrediction",
      "outputs": [
        {
          "internalType": "uint256",
          "name": "",
          "type": "uint256"
        }
      ],
      "stateMutability": "nonpayable",
      "type": "function"
    },
    {
      "inputs": [
        {
          "internalType": "uint256",
          "name": "",
          "type": "uint256"
        }
      ],
      "name": "strategies",
      "outputs": [
        {
          "internalType": "string",
          "name": "coinPair",
          "type": "string"
        },
        {
          "internalType": "uint256",
          "name": "entryPrice",
          "type": "uint256"
        },
        {
          "internalType": "uint256",
          "name": "stopLoss",
          "type": "uint256"
        },
        {
          "internalType": "uint256",
          "name": "takeProfit",
          "type": "uint256"
        },
        {
          "internalType": "uint8",
          "name": "aegisScore",
          "type": "uint8"
        },
        {
          "internalType": "bool",
          "name": "isLong",
          "type": "bool"
        },
        {
          "internalType": "address",
          "name": "creator",
          "type": "address"
        },
        {
          "internalType": "uint256",
          "name": "timestamp",
          "type": "uint256"
        }
      ],
      "stateMutability": "view",
      "type": "function"
    }
  ],
  "devdoc": {
    "details": "Lưu trữ các chiến lược phân tích AI để đảm bảo tính minh bạch trên blockchain Base Sepolia.",
    "kind": "dev",
    "methods": {
      "getStrategy(uint256)": {
        "details": "Lấy thông tin chi tiết của một chiến lược theo ID."
      },
      "getTotalStrategies()": {
        "details": "Lấy tổng số lượng chiến lược đã lưu."
      },
      "savePrediction(string,uint256,uint256,uint256,uint8,bool)": {
        "details": "Lưu một chiến lược mới vào blockchain.",
        "params": {
          "_aegisScore": "Điểm số phân tích AI (0-100)",
          "_coinPair": "Cặp giao dịch (VD: BTC/USDT)",
          "_entryPrice": "Giá vào lệnh (Scaled 10^8)",
          "_isLong": "Vị thế Long (true) hay Short (false)",
          "_stopLoss": "Giá cắt lỗ (Scaled 10^8)",
          "_takeProfit": "Giá chốt lời (Scaled 10^8)"
        }
      }
    },
    "title": "AegisStrategyRegistry",
    "version": 1
  },
  "evm": {
    "assembly": "    /* \"StrategyRegistry.sol\":220:2415  contract AegisStrategyRegistry {... */\n  mstore(0x40, 0x80)\n  callvalue\n  dup1\n  iszero\n  tag_1\n  jumpi\n  0x00\n  dup1\n  revert\ntag_1:\n  pop\n  dataSize(sub_0)\n  dup1\n  dataOffset(sub_0)\n  0x00\n  codecopy\n  0x00\n  return\nstop\n\nsub_0: assembly {\n        /* \"StrategyRegistry.sol\":220:2415  contract AegisStrategyRegistry {... */\n      mstore(0x40, 0x80)\n      callvalue\n      dup1\n      iszero\n      tag_1\n      jumpi\n      0x00\n      dup1\n      revert\n    tag_1:\n      pop\n      jumpi(tag_2, lt(calldatasize, 0x04))\n      shr(0xe0, calldataload(0x00))\n      dup1\n      0x8f44e172\n      eq\n      tag_3\n      jumpi\n      dup1\n      0x99fe7396\n      eq\n      tag_4\n      jumpi\n      dup1\n      0xcfc0cc34\n      eq\n      tag_5\n      jumpi\n      dup1\n      0xd574ea3d\n      eq\n      tag_6\n      jumpi\n    tag_2:\n      0x00\n      dup1\n      revert\n        /* \"StrategyRegistry.sol\":1236:1945  function savePrediction(... */\n    tag_3:\n      tag_7\n      tag_8\n      calldatasize\n      0x04\n      tag_9\n      jump\t// in\n    tag_8:\n      tag_10\n      jump\t// in\n    tag_7:\n      mload(0x40)\n        /* \"#utility.yul\":1900:1925   */\n      swap1\n      dup2\n      mstore\n        /* \"#utility.yul\":1888:1890   */\n      0x20\n        /* \"#utility.yul\":1873:1891   */\n      add\n        /* \"StrategyRegistry.sol\":1236:1945  function savePrediction(... */\n    tag_11:\n      mload(0x40)\n      dup1\n      swap2\n      sub\n      swap1\n      return\n        /* \"StrategyRegistry.sol\":2033:2134  function getTotalStrategies() public view returns (uint256) {... */\n    tag_4:\n        /* \"StrategyRegistry.sol\":2084:2091  uint256 */\n      0x00\n        /* \"StrategyRegistry.sol\":2110:2127  strategies.length */\n      sload\n        /* \"StrategyRegistry.sol\":2033:2134  function getTotalStrategies() public view returns (uint256) {... */\n      jump(tag_7)\n        /* \"StrategyRegistry.sol\":2233:2413  function getStrategy(uint256 _id) public view returns (Strategy memory) {... */\n    tag_5:\n      tag_16\n      tag_17\n      calldatasize\n      0x04\n      tag_18\n      jump\t// in\n    tag_17:\n      tag_19\n      jump\t// in\n    tag_16:\n      mload(0x40)\n      tag_11\n      swap2\n      swap1\n      tag_21\n      jump\t// in\n        /* \"StrategyRegistry.sol\":537:565  Strategy[] public strategies */\n    tag_6:\n      tag_22\n      tag_23\n      calldatasize\n      0x04\n      tag_18\n      jump\t// in\n    tag_23:\n      tag_24\n      jump\t// in\n    tag_22:\n      mload(0x40)\n      tag_11\n      swap9\n      swap8\n      swap7\n      swap6\n      swap5\n      swap4\n      swap3\n      swap2\n      swap1\n      tag_26\n      jump\t// in\n        /* \"StrategyRegistry.sol\":1236:1945  function savePrediction(... */\n    tag_10:\n        /* \"StrategyRegistry.sol\":1484:1783  Strategy({... */\n      0x40\n      dup1\n      mload\n      0x0100\n      dup2\n      add\n      dup3\n      mstore\n      dup8\n      dup2\n      mstore\n      0x20\n      dup2\n      add\n      dup8\n      swap1\n      mstore\n      swap1\n      dup2\n      add\n      dup6\n      swap1\n      mstore\n      0x60\n      dup2\n      add\n      dup5\n      swap1\n      mstore\n      0xff\n      dup4\n      and\n      0x80\n      dup3\n      add\n      mstore\n      dup2\n      iszero\n      iszero\n      0xa0\n      dup3\n      add\n      mstore\n        /* \"StrategyRegistry.sol\":1722:1732  msg.sender */\n      caller\n        /* \"StrategyRegistry.sol\":1484:1783  Strategy({... */\n      0xc0\n      dup3\n      add\n      mstore\n        /* \"StrategyRegistry.sol\":1757:1772  block.timestamp */\n      timestamp\n        /* \"StrategyRegistry.sol\":1484:1783  Strategy({... */\n      0xe0\n      dup3\n      add\n      mstore\n        /* \"StrategyRegistry.sol\":1449:1456  uint256 */\n      0x00\n        /* \"StrategyRegistry.sol\":1468:1784  strategies.push(Strategy({... */\n      dup1\n      sload\n      0x01\n      dup2\n      add\n      dup3\n      sstore\n      dup2\n      dup1\n      mstore\n      dup3\n      mload\n        /* \"StrategyRegistry.sol\":1449:1456  uint256 */\n      swap2\n      swap3\n        /* \"StrategyRegistry.sol\":1484:1783  Strategy({... */\n      swap2\n        /* \"StrategyRegistry.sol\":1468:1784  strategies.push(Strategy({... */\n      0x06\n      swap1\n      swap2\n      mul\n      0x290decd9548b62a8d60345a988386fc84ba6bc95484008f6362f93160ef3e563\n      add\n      swap1\n      dup2\n      swap1\n      tag_29\n      swap1\n      dup3\n      tag_30\n      jump\t// in\n    tag_29:\n      pop\n      0x20\n      dup3\n      add\n      mload\n      0x01\n      dup1\n      dup4\n      add\n      swap2\n      swap1\n      swap2\n      sstore\n      0x40\n      dup4\n      add\n      mload\n      0x02\n      dup4\n      add\n      sstore\n      0x60\n      dup4\n      add\n      mload\n      0x03\n      dup4\n      add\n      sstore\n      0x80\n      dup4\n      add\n      mload\n      0x04\n      dup4\n      add\n      dup1\n      sload\n      0xa0\n      dup7\n      add\n      mload\n      0xc0\n      dup8\n      add\n      mload\n      sub(shl(0xa0, 0x01), 0x01)\n      and\n      0x010000\n      mul\n      0xffffffffffffffffffff0000000000000000000000000000000000000000ffff\n      swap2\n      iszero\n      iszero\n      0x0100\n      mul\n      not(0xffff)\n      swap1\n      swap4\n      and\n      0xff\n      swap1\n      swap6\n      and\n      swap5\n      swap1\n      swap5\n      or\n      swap2\n      swap1\n      swap2\n      or\n      and\n      swap2\n      swap1\n      swap2\n      or\n      swap1\n      sstore\n      0xe0\n      swap1\n      swap3\n      add\n      mload\n      0x05\n      swap1\n      swap2\n      add\n      sstore\n      0x00\n        /* \"StrategyRegistry.sol\":1811:1828  strategies.length */\n      dup1\n      sload\n      swap1\n      swap2\n        /* \"StrategyRegistry.sol\":1811:1832  strategies.length - 1 */\n      tag_31\n      swap2\n      tag_32\n      jump\t// in\n    tag_31:\n        /* \"StrategyRegistry.sol\":1795:1832  uint256 newId = strategies.length - 1 */\n      swap1\n      pop\n        /* \"StrategyRegistry.sol\":1868:1878  msg.sender */\n      caller\n      sub(shl(0xa0, 0x01), 0x01)\n        /* \"StrategyRegistry.sol\":1847:1907  StrategySaved(newId, msg.sender, _coinPair, block.timestamp) */\n      and\n        /* \"StrategyRegistry.sol\":1861:1866  newId */\n      dup2\n        /* \"StrategyRegistry.sol\":1847:1907  StrategySaved(newId, msg.sender, _coinPair, block.timestamp) */\n      0x4d8d413e4ade80517d9c8c3f89cf56bf9f4f77e13c8bf954669d3cfbe9cd2b99\n        /* \"StrategyRegistry.sol\":1880:1889  _coinPair */\n      dup11\n        /* \"StrategyRegistry.sol\":1891:1906  block.timestamp */\n      timestamp\n        /* \"StrategyRegistry.sol\":1847:1907  StrategySaved(newId, msg.sender, _coinPair, block.timestamp) */\n      mload(0x40)\n      tag_33\n      swap3\n      swap2\n      swap1\n      tag_34\n      jump\t// in\n    tag_33:\n      mload(0x40)\n      dup1\n      swap2\n      sub\n      swap1\n      log3\n        /* \"StrategyRegistry.sol\":1933:1938  newId */\n      swap8\n        /* \"StrategyRegistry.sol\":1236:1945  function savePrediction(... */\n      swap7\n      pop\n      pop\n      pop\n      pop\n      pop\n      pop\n      pop\n      jump\t// out\n        /* \"StrategyRegistry.sol\":2233:2413  function getStrategy(uint256 _id) public view returns (Strategy memory) {... */\n    tag_19:\n        /* \"StrategyRegistry.sol\":2288:2303  Strategy memory */\n      tag_36\n      mload(0x40)\n      dup1\n      0x0100\n      add\n      0x40\n      mstore\n      dup1\n      0x60\n      dup2\n      mstore\n      0x20\n      add\n      0x00\n      dup2\n      mstore\n      0x20\n      add\n      0x00\n      dup2\n      mstore\n      0x20\n      add\n      0x00\n      dup2\n      mstore\n      0x20\n      add\n      and(0xff, 0x00)\n      dup2\n      mstore\n      0x20\n      add\n      iszero(iszero(0x00))\n      dup2\n      mstore\n      0x20\n      add\n      and(sub(shl(0xa0, 0x01), 0x01), 0x00)\n      dup2\n      mstore\n      0x20\n      add\n      0x00\n      dup2\n      mstore\n      pop\n      swap1\n      jump\n    tag_36:\n        /* \"StrategyRegistry.sol\":2329:2339  strategies */\n      0x00\n        /* \"StrategyRegistry.sol\":2329:2346  strategies.length */\n      sload\n        /* \"StrategyRegistry.sol\":2323:2346  _id < strategies.length */\n      dup3\n      lt\n        /* \"StrategyRegistry.sol\":2315:2374  require(_id < strategies.length, \"Strategy does not exist\") */\n      tag_39\n      jumpi\n      mload(0x40)\n      shl(0xe5, 0x461bcd)\n      dup2\n      mstore\n        /* \"#utility.yul\":7544:7546   */\n      0x20\n        /* \"StrategyRegistry.sol\":2315:2374  require(_id < strategies.length, \"Strategy does not exist\") */\n      0x04\n      dup3\n      add\n        /* \"#utility.yul\":7526:7547   */\n      mstore\n        /* \"#utility.yul\":7583:7585   */\n      0x17\n        /* \"#utility.yul\":7563:7581   */\n      0x24\n      dup3\n      add\n        /* \"#utility.yul\":7556:7586   */\n      mstore\n        /* \"#utility.yul\":7622:7647   */\n      0x537472617465677920646f6573206e6f74206578697374000000000000000000\n        /* \"#utility.yul\":7602:7620   */\n      0x44\n      dup3\n      add\n        /* \"#utility.yul\":7595:7648   */\n      mstore\n        /* \"#utility.yul\":7665:7683   */\n      0x64\n      add\n        /* \"StrategyRegistry.sol\":2315:2374  require(_id < strategies.length, \"Strategy does not exist\") */\n      mload(0x40)\n      dup1\n      swap2\n      sub\n      swap1\n      revert\n    tag_39:\n        /* \"StrategyRegistry.sol\":2391:2401  strategies */\n      0x00\n        /* \"StrategyRegistry.sol\":2402:2405  _id */\n      dup3\n        /* \"StrategyRegistry.sol\":2391:2406  strategies[_id] */\n      dup2\n      sload\n      dup2\n      lt\n      tag_43\n      jumpi\n      tag_43\n      tag_44\n      jump\t// in\n    tag_43:\n      swap1\n      0x00\n      mstore\n      keccak256(0x00, 0x20)\n      swap1\n      0x06\n      mul\n      add\n        /* \"StrategyRegistry.sol\":2384:2406  return strategies[_id] */\n      mload(0x40)\n      dup1\n      0x0100\n      add\n      0x40\n      mstore\n      swap1\n      dup2\n      0x00\n      dup3\n      add\n      dup1\n      sload\n      tag_46\n      swap1\n      tag_47\n      jump\t// in\n    tag_46:\n      dup1\n      0x1f\n      add\n      0x20\n      dup1\n      swap2\n      div\n      mul\n      0x20\n      add\n      mload(0x40)\n      swap1\n      dup2\n      add\n      0x40\n      mstore\n      dup1\n      swap3\n      swap2\n      swap1\n      dup2\n      dup2\n      mstore\n      0x20\n      add\n      dup3\n      dup1\n      sload\n      tag_48\n      swap1\n      tag_47\n      jump\t// in\n    tag_48:\n      dup1\n      iszero\n      tag_49\n      jumpi\n      dup1\n      0x1f\n      lt\n      tag_50\n      jumpi\n      0x0100\n      dup1\n      dup4\n      sload\n      div\n      mul\n      dup4\n      mstore\n      swap2\n      0x20\n      add\n      swap2\n      jump(tag_49)\n    tag_50:\n      dup3\n      add\n      swap2\n      swap1\n      0x00\n      mstore\n      keccak256(0x00, 0x20)\n      swap1\n    tag_51:\n      dup2\n      sload\n      dup2\n      mstore\n      swap1\n      0x01\n      add\n      swap1\n      0x20\n      add\n      dup1\n      dup4\n      gt\n      tag_51\n      jumpi\n      dup3\n      swap1\n      sub\n      0x1f\n      and\n      dup3\n      add\n      swap2\n    tag_49:\n      pop\n      pop\n      pop\n      swap2\n      dup4\n      mstore\n      pop\n      pop\n      0x01\n      dup3\n      add\n      sload\n      0x20\n      dup3\n      add\n      mstore\n      0x02\n      dup3\n      add\n      sload\n      0x40\n      dup3\n      add\n      mstore\n      0x03\n      dup3\n      add\n      sload\n      0x60\n      dup3\n      add\n      mstore\n      0x04\n      dup3\n      add\n      sload\n      0xff\n      dup1\n      dup3\n      and\n      0x80\n      dup5\n      add\n      mstore\n      0x0100\n      dup3\n      div\n      and\n      iszero\n      iszero\n      0xa0\n      dup4\n      add\n      mstore\n      0x010000\n      swap1\n      div\n      sub(shl(0xa0, 0x01), 0x01)\n      and\n      0xc0\n      dup3\n      add\n      mstore\n      0x05\n      swap1\n      swap2\n      add\n      sload\n      0xe0\n      swap1\n      swap2\n      add\n      mstore\n      swap3\n      swap2\n      pop\n      pop\n        /* \"StrategyRegistry.sol\":2233:2413  function getStrategy(uint256 _id) public view returns (Strategy memory) {... */\n      jump\t// out\n        /* \"StrategyRegistry.sol\":537:565  Strategy[] public strategies */\n    tag_24:\n      0x00\n      dup2\n      dup2\n      sload\n      dup2\n      lt\n      tag_52\n      jumpi\n      0x00\n      dup1\n      revert\n    tag_52:\n      swap1\n      0x00\n      mstore\n      keccak256(0x00, 0x20)\n      swap1\n      0x06\n      mul\n      add\n      0x00\n      swap2\n      pop\n      swap1\n      pop\n      dup1\n      0x00\n      add\n      dup1\n      sload\n      tag_54\n      swap1\n      tag_47\n      jump\t// in\n    tag_54:\n      dup1\n      0x1f\n      add\n      0x20\n      dup1\n      swap2\n      div\n      mul\n      0x20\n      add\n      mload(0x40)\n      swap1\n      dup2\n      add\n      0x40\n      mstore\n      dup1\n      swap3\n      swap2\n      swap1\n      dup2\n      dup2\n      mstore\n      0x20\n      add\n      dup3\n      dup1\n      sload\n      tag_55\n      swap1\n      tag_47\n      jump\t// in\n    tag_55:\n      dup1\n      iszero\n      tag_56\n      jumpi\n      dup1\n      0x1f\n      lt\n      tag_57\n      jumpi\n      0x0100\n      dup1\n      dup4\n      sload\n      div\n      mul\n      dup4\n      mstore\n      swap2\n      0x20\n      add\n      swap2\n      jump(tag_56)\n    tag_57:\n      dup3\n      add\n      swap2\n      swap1\n      0x00\n      mstore\n      keccak256(0x00, 0x20)\n      swap1\n    tag_58:\n      dup2\n      sload\n      dup2\n      mstore\n      swap1\n      0x01\n      add\n      swap1\n      0x20\n      add\n      dup1\n      dup4\n      gt\n      tag_58\n      jumpi\n      dup3\n      swap1\n      sub\n      0x1f\n      and\n      dup3\n      add\n      swap2\n    tag_56:\n      pop\n      pop\n      pop\n      pop\n      0x01\n      dup4\n      add\n      sload\n      0x02\n      dup5\n      add\n      sload\n      0x03\n      dup6\n      add\n      sload\n      0x04\n      dup7\n      add\n      sload\n      0x05\n      swap1\n      swap7\n      add\n      sload\n      swap5\n      swap6\n      swap3\n      swap5\n      swap2\n      swap4\n      pop\n      swap2\n      0xff\n      dup1\n      dup3\n      and\n      swap3\n      0x0100\n      dup4\n      div\n      swap1\n      swap2\n      and\n      swap2\n      0x010000\n      swap1\n      div\n      sub(shl(0xa0, 0x01), 0x01)\n      and\n      swap1\n      dup9\n      jump\t// out\n        /* \"#utility.yul\":14:141   */\n    tag_59:\n        /* \"#utility.yul\":75:85   */\n      0x4e487b71\n        /* \"#utility.yul\":70:73   */\n      0xe0\n        /* \"#utility.yul\":66:86   */\n      shl\n        /* \"#utility.yul\":63:64   */\n      0x00\n        /* \"#utility.yul\":56:87   */\n      mstore\n        /* \"#utility.yul\":106:110   */\n      0x41\n        /* \"#utility.yul\":103:104   */\n      0x04\n        /* \"#utility.yul\":96:111   */\n      mstore\n        /* \"#utility.yul\":130:134   */\n      0x24\n        /* \"#utility.yul\":127:128   */\n      0x00\n        /* \"#utility.yul\":120:135   */\n      revert\n        /* \"#utility.yul\":146:302   */\n    tag_60:\n        /* \"#utility.yul\":212:232   */\n      dup1\n      calldataload\n        /* \"#utility.yul\":272:276   */\n      0xff\n        /* \"#utility.yul\":261:277   */\n      dup2\n      and\n        /* \"#utility.yul\":251:278   */\n      dup2\n      eq\n        /* \"#utility.yul\":241:296   */\n      tag_70\n      jumpi\n        /* \"#utility.yul\":292:293   */\n      0x00\n        /* \"#utility.yul\":289:290   */\n      dup1\n        /* \"#utility.yul\":282:294   */\n      revert\n        /* \"#utility.yul\":241:296   */\n    tag_70:\n        /* \"#utility.yul\":146:302   */\n      swap2\n      swap1\n      pop\n      jump\t// out\n        /* \"#utility.yul\":307:467   */\n    tag_61:\n        /* \"#utility.yul\":372:392   */\n      dup1\n      calldataload\n        /* \"#utility.yul\":428:441   */\n      dup1\n      iszero\n        /* \"#utility.yul\":421:442   */\n      iszero\n        /* \"#utility.yul\":411:443   */\n      dup2\n      eq\n        /* \"#utility.yul\":401:461   */\n      tag_70\n      jumpi\n        /* \"#utility.yul\":457:458   */\n      0x00\n        /* \"#utility.yul\":454:455   */\n      dup1\n        /* \"#utility.yul\":447:459   */\n      revert\n        /* \"#utility.yul\":472:1749   */\n    tag_9:\n        /* \"#utility.yul\":581:587   */\n      0x00\n        /* \"#utility.yul\":589:595   */\n      dup1\n        /* \"#utility.yul\":597:603   */\n      0x00\n        /* \"#utility.yul\":605:611   */\n      dup1\n        /* \"#utility.yul\":613:619   */\n      0x00\n        /* \"#utility.yul\":621:627   */\n      dup1\n        /* \"#utility.yul\":674:677   */\n      0xc0\n        /* \"#utility.yul\":662:671   */\n      dup8\n        /* \"#utility.yul\":653:660   */\n      dup10\n        /* \"#utility.yul\":649:672   */\n      sub\n        /* \"#utility.yul\":645:678   */\n      slt\n        /* \"#utility.yul\":642:695   */\n      iszero\n      tag_74\n      jumpi\n        /* \"#utility.yul\":691:692   */\n      0x00\n        /* \"#utility.yul\":688:689   */\n      dup1\n        /* \"#utility.yul\":681:693   */\n      revert\n        /* \"#utility.yul\":642:695   */\n    tag_74:\n        /* \"#utility.yul\":731:740   */\n      dup7\n        /* \"#utility.yul\":718:741   */\n      calldataload\n        /* \"#utility.yul\":760:778   */\n      0xffffffffffffffff\n        /* \"#utility.yul\":801:803   */\n      dup1\n        /* \"#utility.yul\":793:799   */\n      dup3\n        /* \"#utility.yul\":790:804   */\n      gt\n        /* \"#utility.yul\":787:821   */\n      iszero\n      tag_75\n      jumpi\n        /* \"#utility.yul\":817:818   */\n      0x00\n        /* \"#utility.yul\":814:815   */\n      dup1\n        /* \"#utility.yul\":807:819   */\n      revert\n        /* \"#utility.yul\":787:821   */\n    tag_75:\n        /* \"#utility.yul\":855:861   */\n      dup2\n        /* \"#utility.yul\":844:853   */\n      dup10\n        /* \"#utility.yul\":840:862   */\n      add\n        /* \"#utility.yul\":830:862   */\n      swap2\n      pop\n        /* \"#utility.yul\":900:907   */\n      dup10\n        /* \"#utility.yul\":893:897   */\n      0x1f\n        /* \"#utility.yul\":889:891   */\n      dup4\n        /* \"#utility.yul\":885:898   */\n      add\n        /* \"#utility.yul\":881:908   */\n      slt\n        /* \"#utility.yul\":871:926   */\n      tag_76\n      jumpi\n        /* \"#utility.yul\":922:923   */\n      0x00\n        /* \"#utility.yul\":919:920   */\n      dup1\n        /* \"#utility.yul\":912:924   */\n      revert\n        /* \"#utility.yul\":871:926   */\n    tag_76:\n        /* \"#utility.yul\":958:960   */\n      dup2\n        /* \"#utility.yul\":945:961   */\n      calldataload\n        /* \"#utility.yul\":980:982   */\n      dup2\n        /* \"#utility.yul\":976:978   */\n      dup2\n        /* \"#utility.yul\":973:983   */\n      gt\n        /* \"#utility.yul\":970:1006   */\n      iszero\n      tag_78\n      jumpi\n        /* \"#utility.yul\":986:1004   */\n      tag_78\n      tag_59\n      jump\t// in\n    tag_78:\n        /* \"#utility.yul\":1061:1063   */\n      0x40\n        /* \"#utility.yul\":1055:1064   */\n      mload\n        /* \"#utility.yul\":1029:1031   */\n      0x1f\n        /* \"#utility.yul\":1115:1128   */\n      dup3\n      add\n      not(0x1f)\n        /* \"#utility.yul\":1111:1133   */\n      swap1\n      dup2\n      and\n        /* \"#utility.yul\":1135:1137   */\n      0x3f\n        /* \"#utility.yul\":1107:1138   */\n      add\n        /* \"#utility.yul\":1103:1143   */\n      and\n        /* \"#utility.yul\":1091:1144   */\n      dup2\n      add\n      swap1\n        /* \"#utility.yul\":1159:1177   */\n      dup4\n      dup3\n      gt\n        /* \"#utility.yul\":1179:1201   */\n      dup2\n      dup4\n      lt\n        /* \"#utility.yul\":1156:1202   */\n      or\n        /* \"#utility.yul\":1153:1225   */\n      iszero\n      tag_80\n      jumpi\n        /* \"#utility.yul\":1205:1223   */\n      tag_80\n      tag_59\n      jump\t// in\n    tag_80:\n        /* \"#utility.yul\":1245:1255   */\n      dup2\n        /* \"#utility.yul\":1241:1243   */\n      0x40\n        /* \"#utility.yul\":1234:1256   */\n      mstore\n        /* \"#utility.yul\":1280:1282   */\n      dup3\n        /* \"#utility.yul\":1272:1278   */\n      dup2\n        /* \"#utility.yul\":1265:1283   */\n      mstore\n        /* \"#utility.yul\":1322:1329   */\n      dup13\n        /* \"#utility.yul\":1315:1319   */\n      0x20\n        /* \"#utility.yul\":1310:1312   */\n      dup5\n        /* \"#utility.yul\":1306:1308   */\n      dup8\n        /* \"#utility.yul\":1302:1313   */\n      add\n        /* \"#utility.yul\":1298:1320   */\n      add\n        /* \"#utility.yul\":1295:1330   */\n      gt\n        /* \"#utility.yul\":1292:1347   */\n      iszero\n      tag_81\n      jumpi\n        /* \"#utility.yul\":1343:1344   */\n      0x00\n        /* \"#utility.yul\":1340:1341   */\n      dup1\n        /* \"#utility.yul\":1333:1345   */\n      revert\n        /* \"#utility.yul\":1292:1347   */\n    tag_81:\n        /* \"#utility.yul\":1403:1405   */\n      dup3\n        /* \"#utility.yul\":1396:1400   */\n      0x20\n        /* \"#utility.yul\":1392:1394   */\n      dup7\n        /* \"#utility.yul\":1388:1401   */\n      add\n        /* \"#utility.yul\":1381:1385   */\n      0x20\n        /* \"#utility.yul\":1373:1379   */\n      dup4\n        /* \"#utility.yul\":1369:1386   */\n      add\n        /* \"#utility.yul\":1356:1406   */\n      calldatacopy\n        /* \"#utility.yul\":1450:1451   */\n      0x00\n        /* \"#utility.yul\":1443:1447   */\n      0x20\n        /* \"#utility.yul\":1438:1440   */\n      dup5\n        /* \"#utility.yul\":1430:1436   */\n      dup4\n        /* \"#utility.yul\":1426:1441   */\n      add\n        /* \"#utility.yul\":1422:1448   */\n      add\n        /* \"#utility.yul\":1415:1452   */\n      mstore\n        /* \"#utility.yul\":1471:1477   */\n      dup1\n        /* \"#utility.yul\":1461:1477   */\n      swap11\n      pop\n      pop\n      pop\n      pop\n      pop\n      pop\n        /* \"#utility.yul\":1524:1528   */\n      0x20\n        /* \"#utility.yul\":1513:1522   */\n      dup8\n        /* \"#utility.yul\":1509:1529   */\n      add\n        /* \"#utility.yul\":1496:1530   */\n      calldataload\n        /* \"#utility.yul\":1486:1530   */\n      swap5\n      pop\n        /* \"#utility.yul\":1577:1579   */\n      0x40\n        /* \"#utility.yul\":1566:1575   */\n      dup8\n        /* \"#utility.yul\":1562:1580   */\n      add\n        /* \"#utility.yul\":1549:1581   */\n      calldataload\n        /* \"#utility.yul\":1539:1581   */\n      swap4\n      pop\n        /* \"#utility.yul\":1628:1630   */\n      0x60\n        /* \"#utility.yul\":1617:1626   */\n      dup8\n        /* \"#utility.yul\":1613:1631   */\n      add\n        /* \"#utility.yul\":1600:1632   */\n      calldataload\n        /* \"#utility.yul\":1590:1632   */\n      swap3\n      pop\n        /* \"#utility.yul\":1651:1688   */\n      tag_82\n        /* \"#utility.yul\":1683:1686   */\n      0x80\n        /* \"#utility.yul\":1672:1681   */\n      dup9\n        /* \"#utility.yul\":1668:1687   */\n      add\n        /* \"#utility.yul\":1651:1688   */\n      tag_60\n      jump\t// in\n    tag_82:\n        /* \"#utility.yul\":1641:1688   */\n      swap2\n      pop\n        /* \"#utility.yul\":1707:1743   */\n      tag_83\n        /* \"#utility.yul\":1738:1741   */\n      0xa0\n        /* \"#utility.yul\":1727:1736   */\n      dup9\n        /* \"#utility.yul\":1723:1742   */\n      add\n        /* \"#utility.yul\":1707:1743   */\n      tag_61\n      jump\t// in\n    tag_83:\n        /* \"#utility.yul\":1697:1743   */\n      swap1\n      pop\n        /* \"#utility.yul\":472:1749   */\n      swap3\n      swap6\n      pop\n      swap3\n      swap6\n      pop\n      swap3\n      swap6\n      jump\t// out\n        /* \"#utility.yul\":1936:2116   */\n    tag_18:\n        /* \"#utility.yul\":1995:2001   */\n      0x00\n        /* \"#utility.yul\":2048:2050   */\n      0x20\n        /* \"#utility.yul\":2036:2045   */\n      dup3\n        /* \"#utility.yul\":2027:2034   */\n      dup5\n        /* \"#utility.yul\":2023:2046   */\n      sub\n        /* \"#utility.yul\":2019:2051   */\n      slt\n        /* \"#utility.yul\":2016:2068   */\n      iszero\n      tag_86\n      jumpi\n        /* \"#utility.yul\":2064:2065   */\n      0x00\n        /* \"#utility.yul\":2061:2062   */\n      dup1\n        /* \"#utility.yul\":2054:2066   */\n      revert\n        /* \"#utility.yul\":2016:2068   */\n    tag_86:\n      pop\n        /* \"#utility.yul\":2087:2110   */\n      calldataload\n      swap2\n        /* \"#utility.yul\":1936:2116   */\n      swap1\n      pop\n      jump\t// out\n        /* \"#utility.yul\":2121:2410   */\n    tag_62:\n        /* \"#utility.yul\":2163:2166   */\n      0x00\n        /* \"#utility.yul\":2201:2206   */\n      dup2\n        /* \"#utility.yul\":2195:2207   */\n      mload\n        /* \"#utility.yul\":2228:2234   */\n      dup1\n        /* \"#utility.yul\":2223:2226   */\n      dup5\n        /* \"#utility.yul\":2216:2235   */\n      mstore\n        /* \"#utility.yul\":2284:2290   */\n      dup1\n        /* \"#utility.yul\":2277:2281   */\n      0x20\n        /* \"#utility.yul\":2270:2275   */\n      dup5\n        /* \"#utility.yul\":2266:2282   */\n      add\n        /* \"#utility.yul\":2259:2263   */\n      0x20\n        /* \"#utility.yul\":2254:2257   */\n      dup7\n        /* \"#utility.yul\":2250:2264   */\n      add\n        /* \"#utility.yul\":2244:2291   */\n      mcopy\n        /* \"#utility.yul\":2336:2337   */\n      0x00\n        /* \"#utility.yul\":2329:2333   */\n      0x20\n        /* \"#utility.yul\":2320:2326   */\n      dup3\n        /* \"#utility.yul\":2315:2318   */\n      dup7\n        /* \"#utility.yul\":2311:2327   */\n      add\n        /* \"#utility.yul\":2307:2334   */\n      add\n        /* \"#utility.yul\":2300:2338   */\n      mstore\n        /* \"#utility.yul\":2399:2403   */\n      0x20\n        /* \"#utility.yul\":2392:2394   */\n      0x1f\n        /* \"#utility.yul\":2388:2395   */\n      not\n        /* \"#utility.yul\":2383:2385   */\n      0x1f\n        /* \"#utility.yul\":2375:2381   */\n      dup4\n        /* \"#utility.yul\":2371:2386   */\n      add\n        /* \"#utility.yul\":2367:2396   */\n      and\n        /* \"#utility.yul\":2362:2365   */\n      dup6\n        /* \"#utility.yul\":2358:2397   */\n      add\n        /* \"#utility.yul\":2354:2404   */\n      add\n        /* \"#utility.yul\":2347:2404   */\n      swap2\n      pop\n      pop\n        /* \"#utility.yul\":2121:2410   */\n      swap3\n      swap2\n      pop\n      pop\n      jump\t// out\n        /* \"#utility.yul\":2547:3442   */\n    tag_21:\n        /* \"#utility.yul\":2724:2726   */\n      0x20\n        /* \"#utility.yul\":2713:2722   */\n      dup2\n        /* \"#utility.yul\":2706:2727   */\n      mstore\n        /* \"#utility.yul\":2687:2691   */\n      0x00\n        /* \"#utility.yul\":2762:2768   */\n      dup3\n        /* \"#utility.yul\":2756:2769   */\n      mload\n        /* \"#utility.yul\":2788:2794   */\n      0x0100\n        /* \"#utility.yul\":2830:2832   */\n      dup1\n        /* \"#utility.yul\":2825:2827   */\n      0x20\n        /* \"#utility.yul\":2814:2823   */\n      dup6\n        /* \"#utility.yul\":2810:2828   */\n      add\n        /* \"#utility.yul\":2803:2833   */\n      mstore\n        /* \"#utility.yul\":2856:2908   */\n      tag_90\n        /* \"#utility.yul\":2903:2906   */\n      0x0120\n        /* \"#utility.yul\":2892:2901   */\n      dup6\n        /* \"#utility.yul\":2888:2907   */\n      add\n        /* \"#utility.yul\":2874:2886   */\n      dup4\n        /* \"#utility.yul\":2856:2908   */\n      tag_62\n      jump\t// in\n    tag_90:\n        /* \"#utility.yul\":2842:2908   */\n      swap2\n      pop\n        /* \"#utility.yul\":2962:2964   */\n      0x20\n        /* \"#utility.yul\":2954:2960   */\n      dup6\n        /* \"#utility.yul\":2950:2965   */\n      add\n        /* \"#utility.yul\":2944:2966   */\n      mload\n        /* \"#utility.yul\":2939:2941   */\n      0x40\n        /* \"#utility.yul\":2928:2937   */\n      dup6\n        /* \"#utility.yul\":2924:2942   */\n      add\n        /* \"#utility.yul\":2917:2967   */\n      mstore\n        /* \"#utility.yul\":3021:3023   */\n      0x40\n        /* \"#utility.yul\":3013:3019   */\n      dup6\n        /* \"#utility.yul\":3009:3024   */\n      add\n        /* \"#utility.yul\":3003:3025   */\n      mload\n        /* \"#utility.yul\":2998:3000   */\n      0x60\n        /* \"#utility.yul\":2987:2996   */\n      dup6\n        /* \"#utility.yul\":2983:3001   */\n      add\n        /* \"#utility.yul\":2976:3026   */\n      mstore\n        /* \"#utility.yul\":3081:3083   */\n      0x60\n        /* \"#utility.yul\":3073:3079   */\n      dup6\n        /* \"#utility.yul\":3069:3084   */\n      add\n        /* \"#utility.yul\":3063:3085   */\n      mload\n        /* \"#utility.yul\":3057:3060   */\n      0x80\n        /* \"#utility.yul\":3046:3055   */\n      dup6\n        /* \"#utility.yul\":3042:3061   */\n      add\n        /* \"#utility.yul\":3035:3086   */\n      mstore\n        /* \"#utility.yul\":3152:3156   */\n      0xff\n        /* \"#utility.yul\":3145:3148   */\n      0x80\n        /* \"#utility.yul\":3137:3143   */\n      dup7\n        /* \"#utility.yul\":3133:3149   */\n      add\n        /* \"#utility.yul\":3127:3150   */\n      mload\n        /* \"#utility.yul\":3123:3157   */\n      and\n        /* \"#utility.yul\":3117:3120   */\n      0xa0\n        /* \"#utility.yul\":3106:3115   */\n      dup6\n        /* \"#utility.yul\":3102:3121   */\n      add\n        /* \"#utility.yul\":3095:3158   */\n      mstore\n        /* \"#utility.yul\":3227:3230   */\n      0xa0\n        /* \"#utility.yul\":3219:3225   */\n      dup6\n        /* \"#utility.yul\":3215:3231   */\n      add\n        /* \"#utility.yul\":3209:3232   */\n      mload\n        /* \"#utility.yul\":3202:3233   */\n      iszero\n        /* \"#utility.yul\":3195:3234   */\n      iszero\n        /* \"#utility.yul\":3189:3192   */\n      0xc0\n        /* \"#utility.yul\":3178:3187   */\n      dup6\n        /* \"#utility.yul\":3174:3193   */\n      add\n        /* \"#utility.yul\":3167:3235   */\n      mstore\n        /* \"#utility.yul\":3284:3287   */\n      0xc0\n        /* \"#utility.yul\":3276:3282   */\n      dup6\n        /* \"#utility.yul\":3272:3288   */\n      add\n        /* \"#utility.yul\":3266:3289   */\n      mload\n        /* \"#utility.yul\":3298:3353   */\n      tag_91\n        /* \"#utility.yul\":3348:3351   */\n      0xe0\n        /* \"#utility.yul\":3337:3346   */\n      dup7\n        /* \"#utility.yul\":3333:3352   */\n      add\n        /* \"#utility.yul\":3317:3331   */\n      dup3\n      sub(shl(0xa0, 0x01), 0x01)\n        /* \"#utility.yul\":2481:2535   */\n      and\n        /* \"#utility.yul\":2469:2536   */\n      swap1\n      mstore\n        /* \"#utility.yul\":2415:2542   */\n      jump\n        /* \"#utility.yul\":3298:3353   */\n    tag_91:\n      pop\n        /* \"#utility.yul\":3407:3410   */\n      0xe0\n        /* \"#utility.yul\":3395:3411   */\n      swap5\n      swap1\n      swap5\n      add\n        /* \"#utility.yul\":3389:3412   */\n      mload\n        /* \"#utility.yul\":3369:3387   */\n      swap3\n      swap1\n      swap4\n      add\n        /* \"#utility.yul\":3362:3413   */\n      swap2\n      swap1\n      swap2\n      mstore\n      pop\n        /* \"#utility.yul\":3430:3436   */\n      swap1\n        /* \"#utility.yul\":2547:3442   */\n      jump\t// out\n        /* \"#utility.yul\":3447:4256   */\n    tag_26:\n        /* \"#utility.yul\":3745:3749   */\n      0x00\n        /* \"#utility.yul\":3774:3777   */\n      0x0100\n        /* \"#utility.yul\":3804:3806   */\n      dup1\n        /* \"#utility.yul\":3793:3802   */\n      dup4\n        /* \"#utility.yul\":3786:3807   */\n      mstore\n        /* \"#utility.yul\":3824:3869   */\n      tag_93\n        /* \"#utility.yul\":3865:3867   */\n      dup2\n        /* \"#utility.yul\":3854:3863   */\n      dup5\n        /* \"#utility.yul\":3850:3868   */\n      add\n        /* \"#utility.yul\":3842:3848   */\n      dup13\n        /* \"#utility.yul\":3824:3869   */\n      tag_62\n      jump\t// in\n    tag_93:\n        /* \"#utility.yul\":3900:3902   */\n      0x20\n        /* \"#utility.yul\":3885:3903   */\n      dup5\n      add\n        /* \"#utility.yul\":3878:3912   */\n      swap11\n      swap1\n      swap11\n      mstore\n      pop\n      pop\n        /* \"#utility.yul\":3943:3945   */\n      0x40\n        /* \"#utility.yul\":3928:3946   */\n      dup2\n      add\n        /* \"#utility.yul\":3921:3955   */\n      swap7\n      swap1\n      swap7\n      mstore\n        /* \"#utility.yul\":3986:3988   */\n      0x60\n        /* \"#utility.yul\":3971:3989   */\n      dup7\n      add\n        /* \"#utility.yul\":3964:3998   */\n      swap5\n      swap1\n      swap5\n      mstore\n        /* \"#utility.yul\":4047:4051   */\n      0xff\n        /* \"#utility.yul\":4035:4052   */\n      swap3\n      swap1\n      swap3\n      and\n        /* \"#utility.yul\":4029:4032   */\n      0x80\n        /* \"#utility.yul\":4014:4033   */\n      dup6\n      add\n        /* \"#utility.yul\":4007:4053   */\n      mstore\n        /* \"#utility.yul\":4097:4111   */\n      iszero\n        /* \"#utility.yul\":4090:4112   */\n      iszero\n        /* \"#utility.yul\":4084:4087   */\n      0xa0\n        /* \"#utility.yul\":4069:4088   */\n      dup5\n      add\n        /* \"#utility.yul\":4062:4113   */\n      mstore\n      sub(shl(0xa0, 0x01), 0x01)\n        /* \"#utility.yul\":4150:4205   */\n      and\n        /* \"#utility.yul\":4144:4147   */\n      0xc0\n        /* \"#utility.yul\":4129:4148   */\n      dup4\n      add\n        /* \"#utility.yul\":4122:4206   */\n      mstore\n        /* \"#utility.yul\":4237:4240   */\n      0xe0\n        /* \"#utility.yul\":4222:4241   */\n      swap1\n      swap2\n      add\n        /* \"#utility.yul\":4215:4250   */\n      mstore\n        /* \"#utility.yul\":3816:3869   */\n      swap2\n        /* \"#utility.yul\":3447:4256   */\n      swap1\n      pop\n      jump\t// out\n        /* \"#utility.yul\":4261:4641   */\n    tag_47:\n        /* \"#utility.yul\":4340:4341   */\n      0x01\n        /* \"#utility.yul\":4336:4348   */\n      dup2\n      dup2\n      shr\n      swap1\n        /* \"#utility.yul\":4383:4395   */\n      dup3\n      and\n      dup1\n        /* \"#utility.yul\":4404:4465   */\n      tag_95\n      jumpi\n        /* \"#utility.yul\":4458:4462   */\n      0x7f\n        /* \"#utility.yul\":4450:4456   */\n      dup3\n        /* \"#utility.yul\":4446:4463   */\n      and\n        /* \"#utility.yul\":4436:4463   */\n      swap2\n      pop\n        /* \"#utility.yul\":4404:4465   */\n    tag_95:\n        /* \"#utility.yul\":4511:4513   */\n      0x20\n        /* \"#utility.yul\":4503:4509   */\n      dup3\n        /* \"#utility.yul\":4500:4514   */\n      lt\n        /* \"#utility.yul\":4480:4498   */\n      dup2\n        /* \"#utility.yul\":4477:4515   */\n      sub\n        /* \"#utility.yul\":4474:4635   */\n      tag_96\n      jumpi\n        /* \"#utility.yul\":4557:4567   */\n      0x4e487b71\n        /* \"#utility.yul\":4552:4555   */\n      0xe0\n        /* \"#utility.yul\":4548:4568   */\n      shl\n        /* \"#utility.yul\":4545:4546   */\n      0x00\n        /* \"#utility.yul\":4538:4569   */\n      mstore\n        /* \"#utility.yul\":4592:4596   */\n      0x22\n        /* \"#utility.yul\":4589:4590   */\n      0x04\n        /* \"#utility.yul\":4582:4597   */\n      mstore\n        /* \"#utility.yul\":4620:4624   */\n      0x24\n        /* \"#utility.yul\":4617:4618   */\n      0x00\n        /* \"#utility.yul\":4610:4625   */\n      revert\n        /* \"#utility.yul\":4474:4635   */\n    tag_96:\n      pop\n        /* \"#utility.yul\":4261:4641   */\n      swap2\n      swap1\n      pop\n      jump\t// out\n        /* \"#utility.yul\":4772:5290   */\n    tag_65:\n        /* \"#utility.yul\":4874:4876   */\n      0x1f\n        /* \"#utility.yul\":4869:4872   */\n      dup3\n        /* \"#utility.yul\":4866:4877   */\n      gt\n        /* \"#utility.yul\":4863:5284   */\n      iszero\n      tag_99\n      jumpi\n        /* \"#utility.yul\":4910:4915   */\n      dup1\n        /* \"#utility.yul\":4907:4908   */\n      0x00\n        /* \"#utility.yul\":4900:4916   */\n      mstore\n        /* \"#utility.yul\":4954:4958   */\n      0x20\n        /* \"#utility.yul\":4951:4952   */\n      0x00\n        /* \"#utility.yul\":4941:4959   */\n      keccak256\n        /* \"#utility.yul\":5024:5026   */\n      0x1f\n        /* \"#utility.yul\":5012:5022   */\n      dup5\n        /* \"#utility.yul\":5008:5027   */\n      add\n        /* \"#utility.yul\":5005:5006   */\n      0x05\n        /* \"#utility.yul\":5001:5028   */\n      shr\n        /* \"#utility.yul\":4995:4999   */\n      dup2\n        /* \"#utility.yul\":4991:5029   */\n      add\n        /* \"#utility.yul\":5060:5064   */\n      0x20\n        /* \"#utility.yul\":5048:5058   */\n      dup6\n        /* \"#utility.yul\":5045:5065   */\n      lt\n        /* \"#utility.yul\":5042:5089   */\n      iszero\n      tag_100\n      jumpi\n      pop\n        /* \"#utility.yul\":5083:5087   */\n      dup1\n        /* \"#utility.yul\":5042:5089   */\n    tag_100:\n        /* \"#utility.yul\":5138:5140   */\n      0x1f\n        /* \"#utility.yul\":5133:5136   */\n      dup5\n        /* \"#utility.yul\":5129:5141   */\n      add\n        /* \"#utility.yul\":5126:5127   */\n      0x05\n        /* \"#utility.yul\":5122:5142   */\n      shr\n        /* \"#utility.yul\":5116:5120   */\n      dup3\n        /* \"#utility.yul\":5112:5143   */\n      add\n        /* \"#utility.yul\":5102:5143   */\n      swap2\n      pop\n        /* \"#utility.yul\":5193:5274   */\n    tag_101:\n        /* \"#utility.yul\":5211:5213   */\n      dup2\n        /* \"#utility.yul\":5204:5209   */\n      dup2\n        /* \"#utility.yul\":5201:5214   */\n      lt\n        /* \"#utility.yul\":5193:5274   */\n      iszero\n      tag_103\n      jumpi\n        /* \"#utility.yul\":5270:5271   */\n      0x00\n        /* \"#utility.yul\":5256:5272   */\n      dup2\n      sstore\n        /* \"#utility.yul\":5237:5238   */\n      0x01\n        /* \"#utility.yul\":5226:5239   */\n      add\n        /* \"#utility.yul\":5193:5274   */\n      jump(tag_101)\n    tag_103:\n        /* \"#utility.yul\":5197:5200   */\n      pop\n      pop\n        /* \"#utility.yul\":4863:5284   */\n    tag_99:\n        /* \"#utility.yul\":4772:5290   */\n      pop\n      pop\n      pop\n      jump\t// out\n        /* \"#utility.yul\":5466:6811   */\n    tag_30:\n        /* \"#utility.yul\":5592:5595   */\n      dup2\n        /* \"#utility.yul\":5586:5596   */\n      mload\n        /* \"#utility.yul\":5619:5637   */\n      0xffffffffffffffff\n        /* \"#utility.yul\":5611:5617   */\n      dup2\n        /* \"#utility.yul\":5608:5638   */\n      gt\n        /* \"#utility.yul\":5605:5661   */\n      iszero\n      tag_107\n      jumpi\n        /* \"#utility.yul\":5641:5659   */\n      tag_107\n      tag_59\n      jump\t// in\n    tag_107:\n        /* \"#utility.yul\":5670:5767   */\n      tag_108\n        /* \"#utility.yul\":5760:5766   */\n      dup2\n        /* \"#utility.yul\":5720:5758   */\n      tag_109\n        /* \"#utility.yul\":5752:5756   */\n      dup5\n        /* \"#utility.yul\":5746:5757   */\n      sload\n        /* \"#utility.yul\":5720:5758   */\n      tag_47\n      jump\t// in\n    tag_109:\n        /* \"#utility.yul\":5714:5718   */\n      dup5\n        /* \"#utility.yul\":5670:5767   */\n      tag_65\n      jump\t// in\n    tag_108:\n        /* \"#utility.yul\":5822:5826   */\n      0x20\n      dup1\n        /* \"#utility.yul\":5879:5881   */\n      0x1f\n        /* \"#utility.yul\":5868:5882   */\n      dup4\n      gt\n        /* \"#utility.yul\":5896:5897   */\n      0x01\n        /* \"#utility.yul\":5891:6554   */\n      dup2\n      eq\n      tag_111\n      jumpi\n        /* \"#utility.yul\":6598:6599   */\n      0x00\n        /* \"#utility.yul\":6615:6621   */\n      dup5\n        /* \"#utility.yul\":6612:6701   */\n      iszero\n      tag_112\n      jumpi\n      pop\n        /* \"#utility.yul\":6667:6686   */\n      dup6\n      dup4\n      add\n        /* \"#utility.yul\":6661:6687   */\n      mload\n        /* \"#utility.yul\":6612:6701   */\n    tag_112:\n      not(0x00)\n        /* \"#utility.yul\":5423:5424   */\n      0x03\n        /* \"#utility.yul\":5419:5430   */\n      dup7\n      swap1\n      shl\n        /* \"#utility.yul\":5415:5439   */\n      shr\n        /* \"#utility.yul\":5411:5440   */\n      not\n        /* \"#utility.yul\":5401:5441   */\n      and\n        /* \"#utility.yul\":5447:5448   */\n      0x01\n        /* \"#utility.yul\":5443:5454   */\n      dup6\n      swap1\n      shl\n        /* \"#utility.yul\":5398:5455   */\n      or\n        /* \"#utility.yul\":6714:6795   */\n      dup6\n      sstore\n        /* \"#utility.yul\":5861:6805   */\n      jump(tag_110)\n        /* \"#utility.yul\":5891:6554   */\n    tag_111:\n        /* \"#utility.yul\":4719:4720   */\n      0x00\n        /* \"#utility.yul\":4712:4726   */\n      dup6\n      dup2\n      mstore\n        /* \"#utility.yul\":4756:4760   */\n      0x20\n        /* \"#utility.yul\":4743:4761   */\n      dup2\n      keccak256\n      not(0x1f)\n        /* \"#utility.yul\":5927:5947   */\n      dup7\n      and\n      swap2\n        /* \"#utility.yul\":6045:6281   */\n    tag_115:\n        /* \"#utility.yul\":6059:6066   */\n      dup3\n        /* \"#utility.yul\":6056:6057   */\n      dup2\n        /* \"#utility.yul\":6053:6067   */\n      lt\n        /* \"#utility.yul\":6045:6281   */\n      iszero\n      tag_117\n      jumpi\n        /* \"#utility.yul\":6148:6167   */\n      dup9\n      dup7\n      add\n        /* \"#utility.yul\":6142:6168   */\n      mload\n        /* \"#utility.yul\":6127:6169   */\n      dup3\n      sstore\n        /* \"#utility.yul\":6240:6267   */\n      swap5\n      dup5\n      add\n      swap5\n        /* \"#utility.yul\":6208:6209   */\n      0x01\n        /* \"#utility.yul\":6196:6210   */\n      swap1\n      swap2\n      add\n      swap1\n        /* \"#utility.yul\":6075:6094   */\n      dup5\n      add\n        /* \"#utility.yul\":6045:6281   */\n      jump(tag_115)\n    tag_117:\n        /* \"#utility.yul\":6049:6052   */\n      pop\n        /* \"#utility.yul\":6309:6315   */\n      dup6\n        /* \"#utility.yul\":6300:6307   */\n      dup3\n        /* \"#utility.yul\":6297:6316   */\n      lt\n        /* \"#utility.yul\":6294:6495   */\n      iszero\n      tag_118\n      jumpi\n        /* \"#utility.yul\":6370:6389   */\n      dup8\n      dup6\n      add\n        /* \"#utility.yul\":6364:6390   */\n      mload\n      not(0x00)\n        /* \"#utility.yul\":6453:6454   */\n      0x03\n        /* \"#utility.yul\":6449:6463   */\n      dup9\n      swap1\n      shl\n        /* \"#utility.yul\":6465:6468   */\n      0xf8\n        /* \"#utility.yul\":6445:6469   */\n      and\n        /* \"#utility.yul\":6441:6478   */\n      shr\n        /* \"#utility.yul\":6437:6479   */\n      not\n        /* \"#utility.yul\":6422:6480   */\n      and\n        /* \"#utility.yul\":6407:6481   */\n      dup2\n      sstore\n        /* \"#utility.yul\":6294:6495   */\n    tag_118:\n      pop\n      pop\n        /* \"#utility.yul\":6541:6542   */\n      0x01\n        /* \"#utility.yul\":6532:6538   */\n      dup5\n        /* \"#utility.yul\":6529:6530   */\n      0x01\n        /* \"#utility.yul\":6525:6539   */\n      shl\n        /* \"#utility.yul\":6521:6543   */\n      add\n        /* \"#utility.yul\":6515:6519   */\n      dup6\n        /* \"#utility.yul\":6508:6544   */\n      sstore\n        /* \"#utility.yul\":5861:6805   */\n    tag_110:\n      pop\n      pop\n      pop\n      pop\n        /* \"#utility.yul\":5466:6811   */\n      pop\n      pop\n      jump\t// out\n        /* \"#utility.yul\":6816:7041   */\n    tag_32:\n        /* \"#utility.yul\":6883:6892   */\n      dup2\n      dup2\n      sub\n        /* \"#utility.yul\":6904:6915   */\n      dup2\n      dup2\n      gt\n        /* \"#utility.yul\":6901:7035   */\n      iszero\n      tag_120\n      jumpi\n        /* \"#utility.yul\":6957:6967   */\n      0x4e487b71\n        /* \"#utility.yul\":6952:6955   */\n      0xe0\n        /* \"#utility.yul\":6948:6968   */\n      shl\n        /* \"#utility.yul\":6945:6946   */\n      0x00\n        /* \"#utility.yul\":6938:6969   */\n      mstore\n        /* \"#utility.yul\":6992:6996   */\n      0x11\n        /* \"#utility.yul\":6989:6990   */\n      0x04\n        /* \"#utility.yul\":6982:6997   */\n      mstore\n        /* \"#utility.yul\":7020:7024   */\n      0x24\n        /* \"#utility.yul\":7017:7018   */\n      0x00\n        /* \"#utility.yul\":7010:7025   */\n      revert\n        /* \"#utility.yul\":6901:7035   */\n    tag_120:\n        /* \"#utility.yul\":6816:7041   */\n      swap3\n      swap2\n      pop\n      pop\n      jump\t// out\n        /* \"#utility.yul\":7046:7337   */\n    tag_34:\n        /* \"#utility.yul\":7223:7225   */\n      0x40\n        /* \"#utility.yul\":7212:7221   */\n      dup2\n        /* \"#utility.yul\":7205:7226   */\n      mstore\n        /* \"#utility.yul\":7186:7190   */\n      0x00\n        /* \"#utility.yul\":7243:7288   */\n      tag_122\n        /* \"#utility.yul\":7284:7286   */\n      0x40\n        /* \"#utility.yul\":7273:7282   */\n      dup4\n        /* \"#utility.yul\":7269:7287   */\n      add\n        /* \"#utility.yul\":7261:7267   */\n      dup6\n        /* \"#utility.yul\":7243:7288   */\n      tag_62\n      jump\t// in\n    tag_122:\n        /* \"#utility.yul\":7235:7288   */\n      swap1\n      pop\n        /* \"#utility.yul\":7324:7330   */\n      dup3\n        /* \"#utility.yul\":7319:7321   */\n      0x20\n        /* \"#utility.yul\":7308:7317   */\n      dup4\n        /* \"#utility.yul\":7304:7322   */\n      add\n        /* \"#utility.yul\":7297:7331   */\n      mstore\n        /* \"#utility.yul\":7046:7337   */\n      swap4\n      swap3\n      pop\n      pop\n      pop\n      jump\t// out\n        /* \"#utility.yul\":7694:7821   */\n    tag_44:\n        /* \"#utility.yul\":7755:7765   */\n      0x4e487b71\n        /* \"#utility.yul\":7750:7753   */\n      0xe0\n        /* \"#utility.yul\":7746:7766   */\n      shl\n        /* \"#utility.yul\":7743:7744   */\n      0x00\n        /* \"#utility.yul\":7736:7767   */\n      mstore\n        /* \"#utility.yul\":7786:7790   */\n      0x32\n        /* \"#utility.yul\":7783:7784   */\n      0x04\n        /* \"#utility.yul\":7776:7791   */\n      mstore\n        /* \"#utility.yul\":7810:7814   */\n      0x24\n        /* \"#utility.yul\":7807:7808   */\n      0x00\n        /* \"#utility.yul\":7800:7815   */\n      revert\n\n    auxdata: 0xa264697066735822122089527832abe4850d4aea5807904ddb059ca20d330d14e54b85af13a7843f9e5c64736f6c63430008190033\n}\n",
    "bytecode": {
      "linkReferences": {},
      "object": "6080604052348015600e575f80fd5b506108f58061001c5f395ff3fe608060405234801561000f575f80fd5b506004361061004a575f3560e01c80638f44e1721461004e57806399fe739614610074578063cfc0cc341461007b578063d574ea3d1461009b575b5f80fd5b61006161005c366004610519565b6100c2565b6040519081526020015b60405180910390f35b5f54610061565b61008e6100893660046105ff565b61023a565b60405161006b9190610644565b6100ae6100a93660046105ff565b6103f5565b60405161006b9897969594939291906106c9565b6040805161010081018252878152602081018790529081018590526060810184905260ff8316608082015281151560a08201523360c08201524260e08201525f8054600181018255818052825191929160069091027f290decd9548b62a8d60345a988386fc84ba6bc95484008f6362f93160ef3e5630190819061014690826107a5565b5060208201516001808301919091556040830151600283015560608301516003830155608083015160048301805460a086015160c08701516001600160a01b031662010000027fffffffffffffffffffff0000000000000000000000000000000000000000ffff9115156101000261ffff1990931660ff90951694909417919091171691909117905560e0909201516005909101555f805490916101e991610865565b9050336001600160a01b0316817f4d8d413e4ade80517d9c8c3f89cf56bf9f4f77e13c8bf954669d3cfbe9cd2b998a4260405161022792919061088a565b60405180910390a3979650505050505050565b610289604051806101000160405280606081526020015f81526020015f81526020015f81526020015f60ff1681526020015f151581526020015f6001600160a01b031681526020015f81525090565b5f5482106102dd5760405162461bcd60e51b815260206004820152601760248201527f537472617465677920646f6573206e6f74206578697374000000000000000000604482015260640160405180910390fd5b5f82815481106102ef576102ef6108ab565b905f5260205f209060060201604051806101000160405290815f8201805461031690610721565b80601f016020809104026020016040519081016040528092919081815260200182805461034290610721565b801561038d5780601f106103645761010080835404028352916020019161038d565b820191905f5260205f20905b81548152906001019060200180831161037057829003601f168201915b5050509183525050600182015460208201526002820154604082015260038201546060820152600482015460ff8082166080840152610100820416151560a08301526201000090046001600160a01b031660c082015260059091015460e09091015292915050565b5f8181548110610403575f80fd5b905f5260205f2090600602015f91509050805f01805461042290610721565b80601f016020809104026020016040519081016040528092919081815260200182805461044e90610721565b80156104995780601f1061047057610100808354040283529160200191610499565b820191905f5260205f20905b81548152906001019060200180831161047c57829003601f168201915b505050506001830154600284015460038501546004860154600590960154949592949193509160ff808216926101008304909116916201000090046001600160a01b03169088565b634e487b7160e01b5f52604160045260245ffd5b803560ff81168114610505575f80fd5b919050565b80358015158114610505575f80fd5b5f805f805f8060c0878903121561052e575f80fd5b863567ffffffffffffffff80821115610545575f80fd5b818901915089601f830112610558575f80fd5b81358181111561056a5761056a6104e1565b604051601f8201601f19908116603f01168101908382118183101715610592576105926104e1565b816040528281528c60208487010111156105aa575f80fd5b826020860160208301375f60208483010152809a5050505050506020870135945060408701359350606087013592506105e5608088016104f5565b91506105f360a0880161050a565b90509295509295509295565b5f6020828403121561060f575f80fd5b5035919050565b5f81518084528060208401602086015e5f602082860101526020601f19601f83011685010191505092915050565b602081525f8251610100806020850152610662610120850183610616565b915060208501516040850152604085015160608501526060850151608085015260ff60808601511660a085015260a0850151151560c085015260c08501516106b560e08601826001600160a01b03169052565b5060e0949094015192909301919091525090565b5f6101008083526106dc8184018c610616565b602084019a909a5250506040810196909652606086019490945260ff929092166080850152151560a08401526001600160a01b031660c083015260e090910152919050565b600181811c9082168061073557607f821691505b60208210810361075357634e487b7160e01b5f52602260045260245ffd5b50919050565b601f8211156107a057805f5260205f20601f840160051c8101602085101561077e5750805b601f840160051c820191505b8181101561079d575f815560010161078a565b50505b505050565b815167ffffffffffffffff8111156107bf576107bf6104e1565b6107d3816107cd8454610721565b84610759565b602080601f831160018114610806575f84156107ef5750858301515b5f19600386901b1c1916600185901b17855561085d565b5f85815260208120601f198616915b8281101561083457888601518255948401946001909101908401610815565b508582101561085157878501515f19600388901b60f8161c191681555b505060018460011b0185555b505050505050565b8181038181111561088457634e487b7160e01b5f52601160045260245ffd5b92915050565b604081525f61089c6040830185610616565b90508260208301529392505050565b634e487b7160e01b5f52603260045260245ffdfea264697066735822122089527832abe4850d4aea5807904ddb059ca20d330d14e54b85af13a7843f9e5c64736f6c63430008190033",
      "opcodes": "PUSH1 0x80 PUSH1 0x40 MSTORE CALLVALUE DUP1 ISZERO PUSH1 0xE JUMPI PUSH0 DUP1 REVERT JUMPDEST POP PUSH2 0x8F5 DUP1 PUSH2 0x1C PUSH0 CODECOPY PUSH0 RETURN INVALID PUSH1 0x80 PUSH1 0x40 MSTORE CALLVALUE DUP1 ISZERO PUSH2 0xF JUMPI PUSH0 DUP1 REVERT JUMPDEST POP PUSH1 0x4 CALLDATASIZE LT PUSH2 0x4A JUMPI PUSH0 CALLDATALOAD PUSH1 0xE0 SHR DUP1 PUSH4 0x8F44E172 EQ PUSH2 0x4E JUMPI DUP1 PUSH4 0x99FE7396 EQ PUSH2 0x74 JUMPI DUP1 PUSH4 0xCFC0CC34 EQ PUSH2 0x7B JUMPI DUP1 PUSH4 0xD574EA3D EQ PUSH2 0x9B JUMPI JUMPDEST PUSH0 DUP1 REVERT JUMPDEST PUSH2 0x61 PUSH2 0x5C CALLDATASIZE PUSH1 0x4 PUSH2 0x519 JUMP JUMPDEST PUSH2 0xC2 JUMP JUMPDEST PUSH1 0x40 MLOAD SWAP1 DUP2 MSTORE PUSH1 0x20 ADD JUMPDEST PUSH1 0x40 MLOAD DUP1 SWAP2 SUB SWAP1 RETURN JUMPDEST PUSH0 SLOAD PUSH2 0x61 JUMP JUMPDEST PUSH2 0x8E PUSH2 0x89 CALLDATASIZE PUSH1 0x4 PUSH2 0x5FF JUMP JUMPDEST PUSH2 0x23A JUMP JUMPDEST PUSH1 0x40 MLOAD PUSH2 0x6B SWAP2 SWAP1 PUSH2 0x644 JUMP JUMPDEST PUSH2 0xAE PUSH2 0xA9 CALLDATASIZE PUSH1 0x4 PUSH2 0x5FF JUMP JUMPDEST PUSH2 0x3F5 JUMP JUMPDEST PUSH1 0x40 MLOAD PUSH2 0x6B SWAP9 SWAP8 SWAP7 SWAP6 SWAP5 SWAP4 SWAP3 SWAP2 SWAP1 PUSH2 0x6C9 JUMP JUMPDEST PUSH1 0x40 DUP1 MLOAD PUSH2 0x100 DUP2 ADD DUP3 MSTORE DUP8 DUP2 MSTORE PUSH1 0x20 DUP2 ADD DUP8 SWAP1 MSTORE SWAP1 DUP2 ADD DUP6 SWAP1 MSTORE PUSH1 0x60 DUP2 ADD DUP5 SWAP1 MSTORE PUSH1 0xFF DUP4 AND PUSH1 0x80 DUP3 ADD MSTORE DUP2 ISZERO ISZERO PUSH1 0xA0 DUP3 ADD MSTORE CALLER PUSH1 0xC0 DUP3 ADD MSTORE TIMESTAMP PUSH1 0xE0 DUP3 ADD MSTORE PUSH0 DUP1 SLOAD PUSH1 0x1 DUP2 ADD DUP3 SSTORE DUP2 DUP1 MSTORE DUP3 MLOAD SWAP2 SWAP3 SWAP2 PUSH1 0x6 SWAP1 SWAP2 MUL PUSH32 0x290DECD9548B62A8D60345A988386FC84BA6BC95484008F6362F93160EF3E563 ADD SWAP1 DUP2 SWAP1 PUSH2 0x146 SWAP1 DUP3 PUSH2 0x7A5 JUMP JUMPDEST POP PUSH1 0x20 DUP3 ADD MLOAD PUSH1 0x1 DUP1 DUP4 ADD SWAP2 SWAP1 SWAP2 SSTORE PUSH1 0x40 DUP4 ADD MLOAD PUSH1 0x2 DUP4 ADD SSTORE PUSH1 0x60 DUP4 ADD MLOAD PUSH1 0x3 DUP4 ADD SSTORE PUSH1 0x80 DUP4 ADD MLOAD PUSH1 0x4 DUP4 ADD DUP1 SLOAD PUSH1 0xA0 DUP7 ADD MLOAD PUSH1 0xC0 DUP8 ADD MLOAD PUSH1 0x1 PUSH1 0x1 PUSH1 0xA0 SHL SUB AND PUSH3 0x10000 MUL PUSH32 0xFFFFFFFFFFFFFFFFFFFF0000000000000000000000000000000000000000FFFF SWAP2 ISZERO ISZERO PUSH2 0x100 MUL PUSH2 0xFFFF NOT SWAP1 SWAP4 AND PUSH1 0xFF SWAP1 SWAP6 AND SWAP5 SWAP1 SWAP5 OR SWAP2 SWAP1 SWAP2 OR AND SWAP2 SWAP1 SWAP2 OR SWAP1 SSTORE PUSH1 0xE0 SWAP1 SWAP3 ADD MLOAD PUSH1 0x5 SWAP1 SWAP2 ADD SSTORE PUSH0 DUP1 SLOAD SWAP1 SWAP2 PUSH2 0x1E9 SWAP2 PUSH2 0x865 JUMP JUMPDEST SWAP1 POP CALLER PUSH1 0x1 PUSH1 0x1 PUSH1 0xA0 SHL SUB AND DUP2 PUSH32 0x4D8D413E4ADE80517D9C8C3F89CF56BF9F4F77E13C8BF954669D3CFBE9CD2B99 DUP11 TIMESTAMP PUSH1 0x40 MLOAD PUSH2 0x227 SWAP3 SWAP2 SWAP1 PUSH2 0x88A JUMP JUMPDEST PUSH1 0x40 MLOAD DUP1 SWAP2 SUB SWAP1 LOG3 SWAP8 SWAP7 POP POP POP POP POP POP POP JUMP JUMPDEST PUSH2 0x289 PUSH1 0x40 MLOAD DUP1 PUSH2 0x100 ADD PUSH1 0x40 MSTORE DUP1 PUSH1 0x60 DUP2 MSTORE PUSH1 0x20 ADD PUSH0 DUP2 MSTORE PUSH1 0x20 ADD PUSH0 DUP2 MSTORE PUSH1 0x20 ADD PUSH0 DUP2 MSTORE PUSH1 0x20 ADD PUSH0 PUSH1 0xFF AND DUP2 MSTORE PUSH1 0x20 ADD PUSH0 ISZERO ISZERO DUP2 MSTORE PUSH1 0x20 ADD PUSH0 PUSH1 0x1 PUSH1 0x1 PUSH1 0xA0 SHL SUB AND DUP2 MSTORE PUSH1 0x20 ADD PUSH0 DUP2 MSTORE POP SWAP1 JUMP JUMPDEST PUSH0 SLOAD DUP3 LT PUSH2 0x2DD JUMPI PUSH1 0x40 MLOAD PUSH3 0x461BCD PUSH1 0xE5 SHL DUP2 MSTORE PUSH1 0x20 PUSH1 0x4 DUP3 ADD MSTORE PUSH1 0x17 PUSH1 0x24 DUP3 ADD MSTORE PUSH32 0x537472617465677920646F6573206E6F74206578697374000000000000000000 PUSH1 0x44 DUP3 ADD MSTORE PUSH1 0x64 ADD PUSH1 0x40 MLOAD DUP1 SWAP2 SUB SWAP1 REVERT JUMPDEST PUSH0 DUP3 DUP2 SLOAD DUP2 LT PUSH2 0x2EF JUMPI PUSH2 0x2EF PUSH2 0x8AB JUMP JUMPDEST SWAP1 PUSH0 MSTORE PUSH1 0x20 PUSH0 KECCAK256 SWAP1 PUSH1 0x6 MUL ADD PUSH1 0x40 MLOAD DUP1 PUSH2 0x100 ADD PUSH1 0x40 MSTORE SWAP1 DUP2 PUSH0 DUP3 ADD DUP1 SLOAD PUSH2 0x316 SWAP1 PUSH2 0x721 JUMP JUMPDEST DUP1 PUSH1 0x1F ADD PUSH1 0x20 DUP1 SWAP2 DIV MUL PUSH1 0x20 ADD PUSH1 0x40 MLOAD SWAP1 DUP2 ADD PUSH1 0x40 MSTORE DUP1 SWAP3 SWAP2 SWAP1 DUP2 DUP2 MSTORE PUSH1 0x20 ADD DUP3 DUP1 SLOAD PUSH2 0x342 SWAP1 PUSH2 0x721 JUMP JUMPDEST DUP1 ISZERO PUSH2 0x38D JUMPI DUP1 PUSH1 0x1F LT PUSH2 0x364 JUMPI PUSH2 0x100 DUP1 DUP4 SLOAD DIV MUL DUP4 MSTORE SWAP2 PUSH1 0x20 ADD SWAP2 PUSH2 0x38D JUMP JUMPDEST DUP3 ADD SWAP2 SWAP1 PUSH0 MSTORE PUSH1 0x20 PUSH0 KECCAK256 SWAP1 JUMPDEST DUP2 SLOAD DUP2 MSTORE SWAP1 PUSH1 0x1 ADD SWAP1 PUSH1 0x20 ADD DUP1 DUP4 GT PUSH2 0x370 JUMPI DUP3 SWAP1 SUB PUSH1 0x1F AND DUP3 ADD SWAP2 JUMPDEST POP POP POP SWAP2 DUP4 MSTORE POP POP PUSH1 0x1 DUP3 ADD SLOAD PUSH1 0x20 DUP3 ADD MSTORE PUSH1 0x2 DUP3 ADD SLOAD PUSH1 0x40 DUP3 ADD MSTORE PUSH1 0x3 DUP3 ADD SLOAD PUSH1 0x60 DUP3 ADD MSTORE PUSH1 0x4 DUP3 ADD SLOAD PUSH1 0xFF DUP1 DUP3 AND PUSH1 0x80 DUP5 ADD MSTORE PUSH2 0x100 DUP3 DIV AND ISZERO ISZERO PUSH1 0xA0 DUP4 ADD MSTORE PUSH3 0x10000 SWAP1 DIV PUSH1 0x1 PUSH1 0x1 PUSH1 0xA0 SHL SUB AND PUSH1 0xC0 DUP3 ADD MSTORE PUSH1 0x5 SWAP1 SWAP2 ADD SLOAD PUSH1 0xE0 SWAP1 SWAP2 ADD MSTORE SWAP3 SWAP2 POP POP JUMP JUMPDEST PUSH0 DUP2 DUP2 SLOAD DUP2 LT PUSH2 0x403 JUMPI PUSH0 DUP1 REVERT JUMPDEST SWAP1 PUSH0 MSTORE PUSH1 0x20 PUSH0 KECCAK256 SWAP1 PUSH1 0x6 MUL ADD PUSH0 SWAP2 POP SWAP1 POP DUP1 PUSH0 ADD DUP1 SLOAD PUSH2 0x422 SWAP1 PUSH2 0x721 JUMP JUMPDEST DUP1 PUSH1 0x1F ADD PUSH1 0x20 DUP1 SWAP2 DIV MUL PUSH1 0x20 ADD PUSH1 0x40 MLOAD SWAP1 DUP2 ADD PUSH1 0x40 MSTORE DUP1 SWAP3 SWAP2 SWAP1 DUP2 DUP2 MSTORE PUSH1 0x20 ADD DUP3 DUP1 SLOAD PUSH2 0x44E SWAP1 PUSH2 0x721 JUMP JUMPDEST DUP1 ISZERO PUSH2 0x499 JUMPI DUP1 PUSH1 0x1F LT PUSH2 0x470 JUMPI PUSH2 0x100 DUP1 DUP4 SLOAD DIV MUL DUP4 MSTORE SWAP2 PUSH1 0x20 ADD SWAP2 PUSH2 0x499 JUMP JUMPDEST DUP3 ADD SWAP2 SWAP1 PUSH0 MSTORE PUSH1 0x20 PUSH0 KECCAK256 SWAP1 JUMPDEST DUP2 SLOAD DUP2 MSTORE SWAP1 PUSH1 0x1 ADD SWAP1 PUSH1 0x20 ADD DUP1 DUP4 GT PUSH2 0x47C JUMPI DUP3 SWAP1 SUB PUSH1 0x1F AND DUP3 ADD SWAP2 JUMPDEST POP POP POP POP PUSH1 0x1 DUP4 ADD SLOAD PUSH1 0x2 DUP5 ADD SLOAD PUSH1 0x3 DUP6 ADD SLOAD PUSH1 0x4 DUP7 ADD SLOAD PUSH1 0x5 SWAP1 SWAP7 ADD SLOAD SWAP5 SWAP6 SWAP3 SWAP5 SWAP2 SWAP4 POP SWAP2 PUSH1 0xFF DUP1 DUP3 AND SWAP3 PUSH2 0x100 DUP4 DIV SWAP1 SWAP2 AND SWAP2 PUSH3 0x10000 SWAP1 DIV PUSH1 0x1 PUSH1 0x1 PUSH1 0xA0 SHL SUB AND SWAP1 DUP9 JUMP JUMPDEST PUSH4 0x4E487B71 PUSH1 0xE0 SHL PUSH0 MSTORE PUSH1 0x41 PUSH1 0x4 MSTORE PUSH1 0x24 PUSH0 REVERT JUMPDEST DUP1 CALLDATALOAD PUSH1 0xFF DUP2 AND DUP2 EQ PUSH2 0x505 JUMPI PUSH0 DUP1 REVERT JUMPDEST SWAP2 SWAP1 POP JUMP JUMPDEST DUP1 CALLDATALOAD DUP1 ISZERO ISZERO DUP2 EQ PUSH2 0x505 JUMPI PUSH0 DUP1 REVERT JUMPDEST PUSH0 DUP1 PUSH0 DUP1 PUSH0 DUP1 PUSH1 0xC0 DUP8 DUP10 SUB SLT ISZERO PUSH2 0x52E JUMPI PUSH0 DUP1 REVERT JUMPDEST DUP7 CALLDATALOAD PUSH8 0xFFFFFFFFFFFFFFFF DUP1 DUP3 GT ISZERO PUSH2 0x545 JUMPI PUSH0 DUP1 REVERT JUMPDEST DUP2 DUP10 ADD SWAP2 POP DUP10 PUSH1 0x1F DUP4 ADD SLT PUSH2 0x558 JUMPI PUSH0 DUP1 REVERT JUMPDEST DUP2 CALLDATALOAD DUP2 DUP2 GT ISZERO PUSH2 0x56A JUMPI PUSH2 0x56A PUSH2 0x4E1 JUMP JUMPDEST PUSH1 0x40 MLOAD PUSH1 0x1F DUP3 ADD PUSH1 0x1F NOT SWAP1 DUP2 AND PUSH1 0x3F ADD AND DUP2 ADD SWAP1 DUP4 DUP3 GT DUP2 DUP4 LT OR ISZERO PUSH2 0x592 JUMPI PUSH2 0x592 PUSH2 0x4E1 JUMP JUMPDEST DUP2 PUSH1 0x40 MSTORE DUP3 DUP2 MSTORE DUP13 PUSH1 0x20 DUP5 DUP8 ADD ADD GT ISZERO PUSH2 0x5AA JUMPI PUSH0 DUP1 REVERT JUMPDEST DUP3 PUSH1 0x20 DUP7 ADD PUSH1 0x20 DUP4 ADD CALLDATACOPY PUSH0 PUSH1 0x20 DUP5 DUP4 ADD ADD MSTORE DUP1 SWAP11 POP POP POP POP POP POP PUSH1 0x20 DUP8 ADD CALLDATALOAD SWAP5 POP PUSH1 0x40 DUP8 ADD CALLDATALOAD SWAP4 POP PUSH1 0x60 DUP8 ADD CALLDATALOAD SWAP3 POP PUSH2 0x5E5 PUSH1 0x80 DUP9 ADD PUSH2 0x4F5 JUMP JUMPDEST SWAP2 POP PUSH2 0x5F3 PUSH1 0xA0 DUP9 ADD PUSH2 0x50A JUMP JUMPDEST SWAP1 POP SWAP3 SWAP6 POP SWAP3 SWAP6 POP SWAP3 SWAP6 JUMP JUMPDEST PUSH0 PUSH1 0x20 DUP3 DUP5 SUB SLT ISZERO PUSH2 0x60F JUMPI PUSH0 DUP1 REVERT JUMPDEST POP CALLDATALOAD SWAP2 SWAP1 POP JUMP JUMPDEST PUSH0 DUP2 MLOAD DUP1 DUP5 MSTORE DUP1 PUSH1 0x20 DUP5 ADD PUSH1 0x20 DUP7 ADD MCOPY PUSH0 PUSH1 0x20 DUP3 DUP7 ADD ADD MSTORE PUSH1 0x20 PUSH1 0x1F NOT PUSH1 0x1F DUP4 ADD AND DUP6 ADD ADD SWAP2 POP POP SWAP3 SWAP2 POP POP JUMP JUMPDEST PUSH1 0x20 DUP2 MSTORE PUSH0 DUP3 MLOAD PUSH2 0x100 DUP1 PUSH1 0x20 DUP6 ADD MSTORE PUSH2 0x662 PUSH2 0x120 DUP6 ADD DUP4 PUSH2 0x616 JUMP JUMPDEST SWAP2 POP PUSH1 0x20 DUP6 ADD MLOAD PUSH1 0x40 DUP6 ADD MSTORE PUSH1 0x40 DUP6 ADD MLOAD PUSH1 0x60 DUP6 ADD MSTORE PUSH1 0x60 DUP6 ADD MLOAD PUSH1 0x80 DUP6 ADD MSTORE PUSH1 0xFF PUSH1 0x80 DUP7 ADD MLOAD AND PUSH1 0xA0 DUP6 ADD MSTORE PUSH1 0xA0 DUP6 ADD MLOAD ISZERO ISZERO PUSH1 0xC0 DUP6 ADD MSTORE PUSH1 0xC0 DUP6 ADD MLOAD PUSH2 0x6B5 PUSH1 0xE0 DUP7 ADD DUP3 PUSH1 0x1 PUSH1 0x1 PUSH1 0xA0 SHL SUB AND SWAP1 MSTORE JUMP JUMPDEST POP PUSH1 0xE0 SWAP5 SWAP1 SWAP5 ADD MLOAD SWAP3 SWAP1 SWAP4 ADD SWAP2 SWAP1 SWAP2 MSTORE POP SWAP1 JUMP JUMPDEST PUSH0 PUSH2 0x100 DUP1 DUP4 MSTORE PUSH2 0x6DC DUP2 DUP5 ADD DUP13 PUSH2 0x616 JUMP JUMPDEST PUSH1 0x20 DUP5 ADD SWAP11 SWAP1 SWAP11 MSTORE POP POP PUSH1 0x40 DUP2 ADD SWAP7 SWAP1 SWAP7 MSTORE PUSH1 0x60 DUP7 ADD SWAP5 SWAP1 SWAP5 MSTORE PUSH1 0xFF SWAP3 SWAP1 SWAP3 AND PUSH1 0x80 DUP6 ADD MSTORE ISZERO ISZERO PUSH1 0xA0 DUP5 ADD MSTORE PUSH1 0x1 PUSH1 0x1 PUSH1 0xA0 SHL SUB AND PUSH1 0xC0 DUP4 ADD MSTORE PUSH1 0xE0 SWAP1 SWAP2 ADD MSTORE SWAP2 SWAP1 POP JUMP JUMPDEST PUSH1 0x1 DUP2 DUP2 SHR SWAP1 DUP3 AND DUP1 PUSH2 0x735 JUMPI PUSH1 0x7F DUP3 AND SWAP2 POP JUMPDEST PUSH1 0x20 DUP3 LT DUP2 SUB PUSH2 0x753 JUMPI PUSH4 0x4E487B71 PUSH1 0xE0 SHL PUSH0 MSTORE PUSH1 0x22 PUSH1 0x4 MSTORE PUSH1 0x24 PUSH0 REVERT JUMPDEST POP SWAP2 SWAP1 POP JUMP JUMPDEST PUSH1 0x1F DUP3 GT ISZERO PUSH2 0x7A0 JUMPI DUP1 PUSH0 MSTORE PUSH1 0x20 PUSH0 KECCAK256 PUSH1 0x1F DUP5 ADD PUSH1 0x5 SHR DUP2 ADD PUSH1 0x20 DUP6 LT ISZERO PUSH2 0x77E JUMPI POP DUP1 JUMPDEST PUSH1 0x1F DUP5 ADD PUSH1 0x5 SHR DUP3 ADD SWAP2 POP JUMPDEST DUP2 DUP2 LT ISZERO PUSH2 0x79D JUMPI PUSH0 DUP2 SSTORE PUSH1 0x1 ADD PUSH2 0x78A JUMP JUMPDEST POP POP JUMPDEST POP POP POP JUMP JUMPDEST DUP2 MLOAD PUSH8 0xFFFFFFFFFFFFFFFF DUP2 GT ISZERO PUSH2 0x7BF JUMPI PUSH2 0x7BF PUSH2 0x4E1 JUMP JUMPDEST PUSH2 0x7D3 DUP2 PUSH2 0x7CD DUP5 SLOAD PUSH2 0x721 JUMP JUMPDEST DUP5 PUSH2 0x759 JUMP JUMPDEST PUSH1 0x20 DUP1 PUSH1 0x1F DUP4 GT PUSH1 0x1 DUP2 EQ PUSH2 0x806 JUMPI PUSH0 DUP5 ISZERO PUSH2 0x7EF JUMPI POP DUP6 DUP4 ADD MLOAD JUMPDEST PUSH0 NOT PUSH1 0x3 DUP7 SWAP1 SHL SHR NOT AND PUSH1 0x1 DUP6 SWAP1 SHL OR DUP6 SSTORE PUSH2 0x85D JUMP JUMPDEST PUSH0 DUP6 DUP2 MSTORE PUSH1 0x20 DUP2 KECCAK256 PUSH1 0x1F NOT DUP7 AND SWAP2 JUMPDEST DUP3 DUP2 LT ISZERO PUSH2 0x834 JUMPI DUP9 DUP7 ADD MLOAD DUP3 SSTORE SWAP5 DUP5 ADD SWAP5 PUSH1 0x1 SWAP1 SWAP2 ADD SWAP1 DUP5 ADD PUSH2 0x815 JUMP JUMPDEST POP DUP6 DUP3 LT ISZERO PUSH2 0x851 JUMPI DUP8 DUP6 ADD MLOAD PUSH0 NOT PUSH1 0x3 DUP9 SWAP1 SHL PUSH1 0xF8 AND SHR NOT AND DUP2 SSTORE JUMPDEST POP POP PUSH1 0x1 DUP5 PUSH1 0x1 SHL ADD DUP6 SSTORE JUMPDEST POP POP POP POP POP POP JUMP JUMPDEST DUP2 DUP2 SUB DUP2 DUP2 GT ISZERO PUSH2 0x884 JUMPI PUSH4 0x4E487B71 PUSH1 0xE0 SHL PUSH0 MSTORE PUSH1 0x11 PUSH1 0x4 MSTORE PUSH1 0x24 PUSH0 REVERT JUMPDEST SWAP3 SWAP2 POP POP JUMP JUMPDEST PUSH1 0x40 DUP2 MSTORE PUSH0 PUSH2 0x89C PUSH1 0x40 DUP4 ADD DUP6 PUSH2 0x616 JUMP JUMPDEST SWAP1 POP DUP3 PUSH1 0x20 DUP4 ADD MSTORE SWAP4 SWAP3 POP POP POP JUMP JUMPDEST PUSH4 0x4E487B71 PUSH1 0xE0 SHL PUSH0 MSTORE PUSH1 0x32 PUSH1 0x4 MSTORE PUSH1 0x24 PUSH0 REVERT INVALID LOG2 PUSH5 0x6970667358 0x22 SLT KECCAK256 DUP10 MSTORE PUSH25 0x32ABE4850D4AEA5807904DDB059CA20D330D14E54B85AF13A7 DUP5 EXTCODEHASH SWAP15 TLOAD PUSH5 0x736F6C6343 STOP ADDMOD NOT STOP CALLER "
    },
    "gasEstimates": {
      "creation": {
        "codeDepositCost": "458600",
        "executionCost": "491",
        "totalCost": "459091"
      },
      "external": {
        "getStrategy(uint256)": "infinite",
        "getTotalStrategies()": "2279",
        "savePrediction(string,uint256,uint256,uint256,uint8,bool)": "infinite",
        "strategies(uint256)": "infinite"
      }
    },
    "methodIdentifiers": {
      "getStrategy(uint256)": "cfc0cc34",
      "getTotalStrategies()": "99fe7396",
      "savePrediction(string,uint256,uint256,uint256,uint8,bool)": "8f44e172",
      "strategies(uint256)": "d574ea3d"
    }
  },
  "storageLayout": {
    "storage": [
      {
        "astId": 23,
        "contract": "StrategyRegistry.sol:AegisStrategyRegistry",
        "label": "strategies",
        "offset": 0,
        "slot": "0",
        "type": "t_array(t_struct(Strategy)19_storage)dyn_storage"
      }
    ],
    "types": {
      "t_address": {
        "encoding": "inplace",
        "label": "address",
        "numberOfBytes": "20"
      },
      "t_array(t_struct(Strategy)19_storage)dyn_storage": {
        "base": "t_struct(Strategy)19_storage",
        "encoding": "dynamic_array",
        "label": "struct AegisStrategyRegistry.Strategy[]",
        "numberOfBytes": "32"
      },
      "t_bool": {
        "encoding": "inplace",
        "label": "bool",
        "numberOfBytes": "1"
      },
      "t_string_storage": {
        "encoding": "bytes",
        "label": "string",
        "numberOfBytes": "32"
      },
      "t_struct(Strategy)19_storage": {
        "encoding": "inplace",
        "label": "struct AegisStrategyRegistry.Strategy",
        "members": [
          {
            "astId": 4,
            "contract": "StrategyRegistry.sol:AegisStrategyRegistry",
            "label": "coinPair",
            "offset": 0,
            "slot": "0",
            "type": "t_string_storage"
          },
          {
            "astId": 6,
            "contract": "StrategyRegistry.sol:AegisStrategyRegistry",
            "label": "entryPrice",
            "offset": 0,
            "slot": "1",
            "type": "t_uint256"
          },
          {
            "astId": 8,
            "contract": "StrategyRegistry.sol:AegisStrategyRegistry",
            "label": "stopLoss",
            "offset": 0,
            "slot": "2",
            "type": "t_uint256"
          },
          {
            "astId": 10,
            "contract": "StrategyRegistry.sol:AegisStrategyRegistry",
            "label": "takeProfit",
            "offset": 0,
            "slot": "3",
            "type": "t_uint256"
          },
          {
            "astId": 12,
            "contract": "StrategyRegistry.sol:AegisStrategyRegistry",
            "label": "aegisScore",
            "offset": 0,
            "slot": "4",
            "type": "t_uint8"
          },
          {
            "astId": 14,
            "contract": "StrategyRegistry.sol:AegisStrategyRegistry",
            "label": "isLong",
            "offset": 1,
            "slot": "4",
            "type": "t_bool"
          },
          {
            "astId": 16,
            "contract": "StrategyRegistry.sol:AegisStrategyRegistry",
            "label": "creator",
            "offset": 2,
            "slot": "4",
            "type": "t_address"
          },
          {
            "astId": 18,
            "contract": "StrategyRegistry.sol:AegisStrategyRegistry",
            "label": "timestamp",
            "offset": 0,
            "slot": "5",
            "type": "t_uint256"
          }
        ],
        "numberOfBytes": "192"
      },
      "t_uint256": {
        "encoding": "inplace",
        "label": "uint256",
        "numberOfBytes": "32"
      },
      "t_uint8": {
        "encoding": "inplace",
        "label": "uint8",
        "numberOfBytes": "1"
      }
    }
  },
  "userdoc": {
    "kind": "user",
    "methods": {},
    "version": 1
  }
}